{
  "transactions": [
    {
      "hash": "0x50241b65f44b2b0ed659510bf01a37a34994a9ee38431bb7edb5545ed1203e53",
      "transactionType": "CALL",
      "contractName": null,
      "contractAddress": "0x62c1332822983b8412a6ffda0fd77cd7d5733ee9",
      "function": "approve(address,uint256)",
      "arguments": [
        "0x58cb08E00ec0d97Ee1b9FB0DCeE0Bc87978DdC58",
        "1000000000"
      ],
      "transaction": {
        "from": "0x8c1a617bdb47342f9c17ac8750e0b070c372c721",
        "to": "0x62c1332822983b8412a6ffda0fd77cd7d5733ee9",
        "gas": "0xf960",
        "value": "0x0",
        "input": "0x095ea7b300000000000000000000000058cb08e00ec0d97ee1b9fb0dcee0bc87978ddc58000000000000000000000000000000000000000000000000000000003b9aca00",
        "nonce": "0x4d4",
        "chainId": "0x14a34"
      },
      "additionalContracts": [],
      "isFixedGasLimit": false
    },
    {
      "hash": "0xf27d94de0e20a25ac052caf6b7ee1c84720c860b3a1c0a0ce755e3b50d423b26",
      "transactionType": "CALL",
      "contractName": null,
      "contractAddress": "0x58cb08e00ec0d97ee1b9fb0dcee0bc87978ddc58",
      "function": "bridgeToken((address,bytes32,bytes32,uint64),(bytes32,bytes[],bytes)[])",
      "arguments": [
        "(0x62C1332822983B8412A6Ffda0fd77cd7d5733Ee9, 0x7c87d698c2615bb797dd54aac2c21c12ba582476ed1f7268e6662c2885dbd15d, 0x2af11ef2bf07c9f34eb038aa042dc375cdeb8519d31464bda410ed72c4087f6f, 1)",
        "[]"
      ],
      "transaction": {
        "from": "0x8c1a617bdb47342f9c17ac8750e0b070c372c721",
        "to": "0x58cb08e00ec0d97ee1b9fb0dcee0bc87978ddc58",
        "gas": "0x34f6d",
        "value": "0x0",
        "input": "0x6736eb1700000000000000000000000062c1332822983b8412a6ffda0fd77cd7d5733ee97c87d698c2615bb797dd54aac2c21c12ba582476ed1f7268e6662c2885dbd15d2af11ef2bf07c9f34eb038aa042dc375cdeb8519d31464bda410ed72c4087f6f000000000000000000000000000000000000000000000000000000000000000100000000000000000000000000000000000000000000000000000000000000a00000000000000000000000000000000000000000000000000000000000000000",
        "nonce": "0x4d5",
        "chainId": "0x14a34"
      },
      "additionalContracts": [],
      "isFixedGasLimit": false
    }
  ],
  "receipts": [
    {
      "status": "0x1",
      "cumulativeGasUsed": "0x245739",
      "logs": [
        {
          "address": "0x62c1332822983b8412a6ffda0fd77cd7d5733ee9",
          "topics": [
            "0x8c5be1e5ebec7d5bd14f71427d1e84f3dd0314c0f7b2291e5b200ac8c7c3b925",
            "0x0000000000000000000000008c1a617bdb47342f9c17ac8750e0b070c372c721",
            "0x00000000000000000000000058cb08e00ec0d97ee1b9fb0dcee0bc87978ddc58"
          ],
          "data": "0x000000000000000000000000000000000000000000000000000000003b9aca00",
          "blockHash": "0x401bdc30cffdefdc3c56e8637e7d0ec1463a264b51047e9378569b734c36d827",
          "blockNumber": "0x1c3e764",
          "transactionHash": "0x50241b65f44b2b0ed659510bf01a37a34994a9ee38431bb7edb5545ed1203e53",
          "transactionIndex": "0x15",
          "logIndex": "0x3c",
          "removed": false
        }
      ],
      "logsBloom": "0x00000000000000000000000000100000000000400000000000000000000000000000000000000000000000000000000000000000000000000000000000200000000000000000800000000000000000000000000000000000000000000000000000000000004000000000000000000000000000000000000000000000000400000000000000000000000000000000000040000000000000000000000000000000020000000000000000000000000000000000000000000100000000000000040000000000000000000000000000800000000000000000000000000000000000000010000000000000000000000000000000000000000000000000000000000000",
      "type": "0x2",
      "transactionHash": "0x50241b65f44b2b0ed659510bf01a37a34994a9ee38431bb7edb5545ed1203e53",
      "transactionIndex": "0x15",
      "blockHash": "0x401bdc30cffdefdc3c56e8637e7d0ec1463a264b51047e9378569b734c36d827",
      "blockNumber": "0x1c3e764",
      "gasUsed": "0xb48c",
      "effectiveGasPrice": "0xf4283",
      "from": "0x8c1a617bdb47342f9c17ac8750e0b070c372c721",
      "to": "0x62c1332822983b8412a6ffda0fd77cd7d5733ee9",
      "contractAddress": null,
      "l1BaseFeeScalar": "0x44d",
      "l1BlobBaseFee": "0x1",
      "l1BlobBaseFeeScalar": "0xa118b",
      "l1Fee": "0x248042",
      "l1GasPrice": "0x14b845",
      "l1GasUsed": "0x640"
    },
    {
      "status": "0x1",
      "cumulativeGasUsed": "0x26bcbf",
      "logs": [
        {
          "address": "0x62c1332822983b8412a6ffda0fd77cd7d5733ee9",
          "topics": [
            "0x8c5be1e5ebec7d5bd14f71427d1e84f3dd0314c0f7b2291e5b200ac8c7c3b925",
            "0x0000000000000000000000008c1a617bdb47342f9c17ac8750e0b070c372c721",
            "0x00000000000000000000000058cb08e00ec0d97ee1b9fb0dcee0bc87978ddc58"
          ],
          "data": "0x0000000000000000000000000000000000000000000000000000000000000000",
          "blockHash": "0x401bdc30cffdefdc3c56e8637e7d0ec1463a264b51047e9378569b734c36d827",
          "blockNumber": "0x1c3e764",
          "transactionHash": "0xf27d94de0e20a25ac052caf6b7ee1c84720c860b3a1c0a0ce755e3b50d423b26",
          "transactionIndex": "0x16",
          "logIndex": "0x3d",
          "removed": false
        },
        {
          "address": "0x62c1332822983b8412a6ffda0fd77cd7d5733ee9",
          "topics": [
            "0xddf252ad1be2c89b69c2b068fc378daa952ba7f163c4a11628f55a4df523b3ef",
            "0x0000000000000000000000008c1a617bdb47342f9c17ac8750e0b070c372c721",
            "0x00000000000000000000000058cb08e00ec0d97ee1b9fb0dcee0bc87978ddc58"
          ],
          "data": "0x000000000000000000000000000000000000000000000000000000003b9aca00",
          "blockHash": "0x401bdc30cffdefdc3c56e8637e7d0ec1463a264b51047e9378569b734c36d827",
          "blockNumber": "0x1c3e764",
          "transactionHash": "0xf27d94de0e20a25ac052caf6b7ee1c84720c860b3a1c0a0ce755e3b50d423b26",
          "transactionIndex": "0x16",
          "logIndex": "0x3e",
          "removed": false
        },
        {
          "address": "0x58cb08e00ec0d97ee1b9fb0dcee0bc87978ddc58",
          "topics": [
            "0xf1109ae3af61805fa998753209b2a90166bfc4b38ad8a6b5a268591ce18f99c0"
          ],
          "data": "0x00000000000000000000000062c1332822983b8412a6ffda0fd77cd7d5733ee97c87d698c2615bb797dd54aac2c21c12ba582476ed1f7268e6662c2885dbd15d2af11ef2bf07c9f34eb038aa042dc375cdeb8519d31464bda410ed72c4087f6f000000000000000000000000000000000000000000000000000000003b9aca00",
          "blockHash": "0x401bdc30cffdefdc3c56e8637e7d0ec1463a264b51047e9378569b734c36d827",
          "blockNumber": "0x1c3e764",
          "transactionHash": "0xf27d94de0e20a25ac052caf6b7ee1c84720c860b3a1c0a0ce755e3b50d423b26",
          "transactionIndex": "0x16",
          "logIndex": "0x3f",
          "removed": false
        },
        {
          "address": "0x58cb08e00ec0d97ee1b9fb0dcee0bc87978ddc58",
          "topics": [
            "0xbaa7ef9db66a2e95a218100288cf439de5fbe1e4ed665cd1a2f01278242c9fc4",
            "0x8915dd68f830e06b27a985755ff51e1a0ad9180ca0806413882a81856449dbb2",
            "0x3250c476f7b2c825e0e54ebc179282b774f7b4cda03b7909794c121e0231610f"
          ],
          "data": "0x000000000000000000000000000000000000000000000000000000000000002000000000000000000000000000000000000000000000000000000000000000020000000000000000000000008c1a617bdb47342f9c17ac8750e0b070c372c7210000000000000000000000000000000000000000000000000000000000000060000000000000000000000000000000000000000000000000000000000000004e01027c87d698c2615bb797dd54aac2c21c12ba582476ed1f7268e6662c2885dbd15d2af11ef2bf07c9f34eb038aa042dc375cdeb8519d31464bda410ed72c4087f6f010000000000000000000000000000000000000000000000000000000000",
          "blockHash": "0x401bdc30cffdefdc3c56e8637e7d0ec1463a264b51047e9378569b734c36d827",
          "blockNumber": "0x1c3e764",
          "transactionHash": "0xf27d94de0e20a25ac052caf6b7ee1c84720c860b3a1c0a0ce755e3b50d423b26",
          "transactionIndex": "0x16",
          "logIndex": "0x40",
          "removed": false
        }
      ],
      "logsBloom": "0x00000000000000000000000020100000000000400000000000000000000000000000000000000000000000000000000000000000000000000000000000200000000000000020800020000008000000000000000000020010080000000000000000002000004000000000000000000000000000000000000000000010000400000000000000000000000000000000004040000000000000000000000000000000020000000000000000000000000000000000000000000100000000020800040000002002000000000000000002800000000000000000000200000000000000000010000000000000002000000000000000000010000000000000000000000000",
      "type": "0x2",
      "transactionHash": "0xf27d94de0e20a25ac052caf6b7ee1c84720c860b3a1c0a0ce755e3b50d423b26",
      "transactionIndex": "0x16",
      "blockHash": "0x401bdc30cffdefdc3c56e8637e7d0ec1463a264b51047e9378569b734c36d827",
      "blockNumber": "0x1c3e764",
      "gasUsed": "0x26586",
      "effectiveGasPrice": "0xf4283",
      "from": "0x8c1a617bdb47342f9c17ac8750e0b070c372c721",
      "to": "0x58cb08e00ec0d97ee1b9fb0dcee0bc87978ddc58",
      "contractAddress": null,
      "l1BaseFeeScalar": "0x44d",
      "l1BlobBaseFee": "0x1",
      "l1BlobBaseFeeScalar": "0xa118b",
      "l1Fee": "0x38d1bb",
      "l1GasPrice": "0x14b845",
      "l1GasUsed": "0x9ba"
    }
  ],
  "libraries": [],
  "pending": [],
  "returns": {},
  "timestamp": 1755000232,
  "chain": 84532,
  "commit": "d8c3a8c"
}