{
  "transactions": [
    {
      "hash": "0xf3c8558c341410c68a9237db0d0f2239ce3e83e66f73bae8b0b09b14c3ec76e1",
      "transactionType": "CALL",
      "contractName": null,
      "contractAddress": "0x58cb08e00ec0d97ee1b9fb0dcee0bc87978ddc58",
      "function": "bridgeToken((address,bytes32,bytes32,uint64),(bytes32,bytes[],bytes)[])",
      "arguments": [
        "(0xCfc031A0A2C378f37e3858d174222614dbDCc826, 0x069be72ab836d4eacc02525b7350a78a395da2f1253a40ebafd6630000000000, 0x9827993b7b317eb6c74279d49074a13b33a3495a30637c86a7513922014ba424, 1)",
        "[]"
      ],
      "transaction": {
        "from": "0x8c1a617bdb47342f9c17ac8750e0b070c372c721",
        "to": "0x58cb08e00ec0d97ee1b9fb0dcee0bc87978ddc58",
        "gas": "0x3dd93",
        "value": "0x0",
        "input": "0x6736eb17000000000000000000000000cfc031a0a2c378f37e3858d174222614dbdcc826069be72ab836d4eacc02525b7350a78a395da2f1253a40ebafd66300000000009827993b7b317eb6c74279d49074a13b33a3495a30637c86a7513922014ba424000000000000000000000000000000000000000000000000000000000000000100000000000000000000000000000000000000000000000000000000000000a00000000000000000000000000000000000000000000000000000000000000000",
        "nonce": "0x4d6",
        "chainId": "0x14a34"
      },
      "additionalContracts": [],
      "isFixedGasLimit": false
    }
  ],
  "receipts": [
    {
      "status": "0x1",
      "cumulativeGasUsed": "0x43964e",
      "logs": [
        {
          "address": "0xcfc031a0a2c378f37e3858d174222614dbdcc826",
          "topics": [
            "0xddf252ad1be2c89b69c2b068fc378daa952ba7f163c4a11628f55a4df523b3ef",
            "0x0000000000000000000000008c1a617bdb47342f9c17ac8750e0b070c372c721",
            "0x0000000000000000000000000000000000000000000000000000000000000000"
          ],
          "data": "0x0000000000000000000000000000000000000000000000000000000000000001",
          "blockHash": "0xd97aa8a709a22b20cc78ab2cbd4f40c0f72ed82e78f45091294f3d371ca606ec",
          "blockNumber": "0x1c3e781",
          "transactionHash": "0xf3c8558c341410c68a9237db0d0f2239ce3e83e66f73bae8b0b09b14c3ec76e1",
          "transactionIndex": "0xd",
          "logIndex": "0x9e",
          "removed": false
        },
        {
          "address": "0xcfc031a0a2c378f37e3858d174222614dbdcc826",
          "topics": [
            "0xcc16f5dbb4873280815c1ee09dbd06736cffcc184412cf7a71a0fdb75d397ca5",
            "0x0000000000000000000000008c1a617bdb47342f9c17ac8750e0b070c372c721"
          ],
          "data": "0x0000000000000000000000000000000000000000000000000000000000000001",
          "blockHash": "0xd97aa8a709a22b20cc78ab2cbd4f40c0f72ed82e78f45091294f3d371ca606ec",
          "blockNumber": "0x1c3e781",
          "transactionHash": "0xf3c8558c341410c68a9237db0d0f2239ce3e83e66f73bae8b0b09b14c3ec76e1",
          "transactionIndex": "0xd",
          "logIndex": "0x9f",
          "removed": false
        },
        {
          "address": "0x58cb08e00ec0d97ee1b9fb0dcee0bc87978ddc58",
          "topics": [
            "0xf1109ae3af61805fa998753209b2a90166bfc4b38ad8a6b5a268591ce18f99c0"
          ],
          "data": "0x000000000000000000000000cfc031a0a2c378f37e3858d174222614dbdcc826069be72ab836d4eacc02525b7350a78a395da2f1253a40ebafd66300000000009827993b7b317eb6c74279d49074a13b33a3495a30637c86a7513922014ba4240000000000000000000000000000000000000000000000000000000000000001",
          "blockHash": "0xd97aa8a709a22b20cc78ab2cbd4f40c0f72ed82e78f45091294f3d371ca606ec",
          "blockNumber": "0x1c3e781",
          "transactionHash": "0xf3c8558c341410c68a9237db0d0f2239ce3e83e66f73bae8b0b09b14c3ec76e1",
          "transactionIndex": "0xd",
          "logIndex": "0xa0",
          "removed": false
        },
        {
          "address": "0x58cb08e00ec0d97ee1b9fb0dcee0bc87978ddc58",
          "topics": [
            "0xbaa7ef9db66a2e95a218100288cf439de5fbe1e4ed665cd1a2f01278242c9fc4",
            "0x8ae63fd55379ac4fd85f92e27c55940ccd72f67e47766a96b99dc265200288b0",
            "0xa7ff77fb97ef1c34d564804876bedc0fe4b7ae598c47786ad5317e87e362bdf7"
          ],
          "data": "0x000000000000000000000000000000000000000000000000000000000000002000000000000000000000000000000000000000000000000000000000000000030000000000000000000000008c1a617bdb47342f9c17ac8750e0b070c372c721000000000000000000000000000000000000000000000000000000000000006000000000000000000000000000000000000000000000000000000000000000420100cfc031a0a2c378f37e3858d174222614dbdcc8269827993b7b317eb6c74279d49074a13b33a3495a30637c86a7513922014ba424010000000000000000000000000000000000000000000000000000000000000000000000000000000000",
          "blockHash": "0xd97aa8a709a22b20cc78ab2cbd4f40c0f72ed82e78f45091294f3d371ca606ec",
          "blockNumber": "0x1c3e781",
          "transactionHash": "0xf3c8558c341410c68a9237db0d0f2239ce3e83e66f73bae8b0b09b14c3ec76e1",
          "transactionIndex": "0xd",
          "logIndex": "0xa1",
          "removed": false
        }
      ],
      "logsBloom": "0x04000000800000000000000000000008000000000000001000000000000000000000000000000002000000000000000000000000000000000000000000000000000000000020800020000008000000080000000000020000080000000000000000002000024000000000000000000800080000000000000000000010000000000000000000000000000000000000004002000000000000000000000000200000000000000000000000000000000000000000000000000000000000000000000000000002000000000000000000800080000020000000000200000000000020000000000000000000082000000000000000000010000000000000000000000000",
      "type": "0x2",
      "transactionHash": "0xf3c8558c341410c68a9237db0d0f2239ce3e83e66f73bae8b0b09b14c3ec76e1",
      "transactionIndex": "0xd",
      "blockHash": "0xd97aa8a709a22b20cc78ab2cbd4f40c0f72ed82e78f45091294f3d371ca606ec",
      "blockNumber": "0x1c3e781",
      "gasUsed": "0x2a4a2",
      "effectiveGasPrice": "0xf4284",
      "from": "0x8c1a617bdb47342f9c17ac8750e0b070c372c721",
      "to": "0x58cb08e00ec0d97ee1b9fb0dcee0bc87978ddc58",
      "contractAddress": null,
      "l1BaseFeeScalar": "0x44d",
      "l1BlobBaseFee": "0x1",
      "l1BlobBaseFeeScalar": "0xa118b",
      "l1Fee": "0x440ad2",
      "l1GasPrice": "0x19a3a3",
      "l1GasUsed": "0x96a"
    }
  ],
  "libraries": [],
  "pending": [],
  "returns": {},
  "timestamp": 1755000290,
  "chain": 84532,
  "commit": "d8c3a8c"
}