{
  "transactions": [
    {
      "hash": "0x094772b53bd4bab48332be51f312787837add702442c0705458e1ca71a984f21",
      "transactionType": "CALL",
      "contractName": null,
      "contractAddress": "0x58cb08e00ec0d97ee1b9fb0dcee0bc87978ddc58",
      "function": "bridgeToken((address,bytes32,bytes32,uint64),(bytes32,bytes[],bytes)[])",
      "arguments": [
        "(0xEeeeeEeeeEeEeeEeEeEeeEEEeeeeEeeeeeeeEEeE, 0x27fc650cb2e575ff2305cf3a2e937ee037a28e94171489ab54925d89aa7b265f, 0x6ce0eb02e5c9ce90914c1457e6ebb812b96a9d5a4f2cb753c13c4e84eb0703d0, 1)",
        "[]"
      ],
      "transaction": {
        "from": "0x8c1a617bdb47342f9c17ac8750e0b070c372c721",
        "to": "0x58cb08e00ec0d97ee1b9fb0dcee0bc87978ddc58",
        "gas": "0x24de9",
        "value": "0x3b9aca00",
        "input": "0x6736eb17000000000000000000000000eeeeeeeeeeeeeeeeeeeeeeeeeeeeeeeeeeeeeeee27fc650cb2e575ff2305cf3a2e937ee037a28e94171489ab54925d89aa7b265f6ce0eb02e5c9ce90914c1457e6ebb812b96a9d5a4f2cb753c13c4e84eb0703d0000000000000000000000000000000000000000000000000000000000000000100000000000000000000000000000000000000000000000000000000000000a00000000000000000000000000000000000000000000000000000000000000000",
        "nonce": "0x4d3",
        "chainId": "0x14a34"
      },
      "additionalContracts": [],
      "isFixedGasLimit": false
    }
  ],
  "receipts": [
    {
      "status": "0x1",
      "cumulativeGasUsed": "0x67a2ab",
      "logs": [
        {
          "address": "0x58cb08e00ec0d97ee1b9fb0dcee0bc87978ddc58",
          "topics": [
            "0xf1109ae3af61805fa998753209b2a90166bfc4b38ad8a6b5a268591ce18f99c0"
          ],
          "data": "0x000000000000000000000000eeeeeeeeeeeeeeeeeeeeeeeeeeeeeeeeeeeeeeee27fc650cb2e575ff2305cf3a2e937ee037a28e94171489ab54925d89aa7b265f6ce0eb02e5c9ce90914c1457e6ebb812b96a9d5a4f2cb753c13c4e84eb0703d0000000000000000000000000000000000000000000000000000000003b9aca00",
          "blockHash": "0xc22ca87c99f84bf99c94fa22dd70dc1dfc8cac37939864ee703d988a1a6d292e",
          "blockNumber": "0x1c3e748",
          "transactionHash": "0x094772b53bd4bab48332be51f312787837add702442c0705458e1ca71a984f21",
          "transactionIndex": "0x19",
          "logIndex": "0xee",
          "removed": false
        },
        {
          "address": "0x58cb08e00ec0d97ee1b9fb0dcee0bc87978ddc58",
          "topics": [
            "0xbaa7ef9db66a2e95a218100288cf439de5fbe1e4ed665cd1a2f01278242c9fc4",
            "0xb1e11d7793830fc02e36db11d74b033a5bdd6f796d847ac184445e410a58f2d7",
            "0x52655e28da9316d4d5c42200ede22ed40042d6fb3b0e06f865799584a4d88c64"
          ],
          "data": "0x000000000000000000000000000000000000000000000000000000000000002000000000000000000000000000000000000000000000000000000000000000010000000000000000000000008c1a617bdb47342f9c17ac8750e0b070c372c7210000000000000000000000000000000000000000000000000000000000000060000000000000000000000000000000000000000000000000000000000000004e010227fc650cb2e575ff2305cf3a2e937ee037a28e94171489ab54925d89aa7b265f6ce0eb02e5c9ce90914c1457e6ebb812b96a9d5a4f2cb753c13c4e84eb0703d0010000000000000000000000000000000000000000000000000000000000",
          "blockHash": "0xc22ca87c99f84bf99c94fa22dd70dc1dfc8cac37939864ee703d988a1a6d292e",
          "blockNumber": "0x1c3e748",
          "transactionHash": "0x094772b53bd4bab48332be51f312787837add702442c0705458e1ca71a984f21",
          "transactionIndex": "0x19",
          "logIndex": "0xef",
          "removed": false
        }
      ],
      "logsBloom": "0x00000000000000000000000000000000000000000000000000000000000000004000000000000000000000000000000000000000000000000000000000000000000000000020000020000000000000000000000000020000080000000000002000002000000000000000000000000800000000000000000000000000000040000000000000000000000000000000004000000000000000000000000000000000000000000000000000000000000000200000000000000000000000000000000000000000000000000000000000000000000000000000000200000000000000000000000000000000002000000000000000000010000000000800000000000000",
      "type": "0x2",
      "transactionHash": "0x094772b53bd4bab48332be51f312787837add702442c0705458e1ca71a984f21",
      "transactionIndex": "0x19",
      "blockHash": "0xc22ca87c99f84bf99c94fa22dd70dc1dfc8cac37939864ee703d988a1a6d292e",
      "blockNumber": "0x1c3e748",
      "gasUsed": "0x1ab16",
      "effectiveGasPrice": "0xf4283",
      "from": "0x8c1a617bdb47342f9c17ac8750e0b070c372c721",
      "to": "0x58cb08e00ec0d97ee1b9fb0dcee0bc87978ddc58",
      "contractAddress": null,
      "l1BaseFeeScalar": "0x44d",
      "l1BlobBaseFee": "0x1",
      "l1BlobBaseFeeScalar": "0xa118b",
      "l1Fee": "0x3449ab",
      "l1GasPrice": "0x1461b3",
      "l1GasUsed": "0x91a"
    }
  ],
  "libraries": [],
  "pending": [],
  "returns": {},
  "timestamp": 1755000177,
  "chain": 84532,
  "commit": "d8c3a8c"
}