{
  "transactions": [
    {
      "hash": "0xe1676709d261057c01bbd43e057276a4e2ca36c822f568d7fddf795008dc8db3",
      "transactionType": "CALL",
      "contractName": null,
      "contractAddress": "0x58cb08e00ec0d97ee1b9fb0dcee0bc87978ddc58",
      "function": "bridgeToken((address,bytes32,bytes32,uint64),(bytes32,bytes[],bytes)[])",
      "arguments": [
        "(0xdA8BEBF6f9cfEC0C0e1bE2CE3F689221692594BA, 0x6ccf56ff18093bc61462cd67c8aa86216fbad049e41d9bffa0856e5f34af5498, 0x6621d2d930ef7ada6260d3e0a5679a8fe81fde41262314f2efbf9c4c828550b1, 1)",
        "[]"
      ],
      "transaction": {
        "from": "0x8c1a617bdb47342f9c17ac8750e0b070c372c721",
        "to": "0x58cb08e00ec0d97ee1b9fb0dcee0bc87978ddc58",
        "gas": "0x2719c",
        "value": "0x0",
        "input": "0x6736eb17000000000000000000000000da8bebf6f9cfec0c0e1be2ce3f689221692594ba6ccf56ff18093bc61462cd67c8aa86216fbad049e41d9bffa0856e5f34af54986621d2d930ef7ada6260d3e0a5679a8fe81fde41262314f2efbf9c4c828550b1000000000000000000000000000000000000000000000000000000000000000100000000000000000000000000000000000000000000000000000000000000a00000000000000000000000000000000000000000000000000000000000000000",
        "nonce": "0x4d7",
        "chainId": "0x14a34"
      },
      "additionalContracts": [],
      "isFixedGasLimit": false
    }
  ],
  "receipts": [
    {
      "status": "0x1",
      "cumulativeGasUsed": "0x1ace9b",
      "logs": [
        {
          "address": "0xda8bebf6f9cfec0c0e1be2ce3f689221692594ba",
          "topics": [
            "0xddf252ad1be2c89b69c2b068fc378daa952ba7f163c4a11628f55a4df523b3ef",
            "0x0000000000000000000000008c1a617bdb47342f9c17ac8750e0b070c372c721",
            "0x0000000000000000000000000000000000000000000000000000000000000000"
          ],
          "data": "0x0000000000000000000000000000000000000000000000000000000000000001",
          "blockHash": "0x5f32638de025c92b8d6d35253ffb0006335560f635c0cb876b7a65606b618988",
          "blockNumber": "0x1c3e792",
          "transactionHash": "0xe1676709d261057c01bbd43e057276a4e2ca36c822f568d7fddf795008dc8db3",
          "transactionIndex": "0xa",
          "logIndex": "0x1e",
          "removed": false
        },
        {
          "address": "0xda8bebf6f9cfec0c0e1be2ce3f689221692594ba",
          "topics": [
            "0xcc16f5dbb4873280815c1ee09dbd06736cffcc184412cf7a71a0fdb75d397ca5",
            "0x0000000000000000000000008c1a617bdb47342f9c17ac8750e0b070c372c721"
          ],
          "data": "0x0000000000000000000000000000000000000000000000000000000000000001",
          "blockHash": "0x5f32638de025c92b8d6d35253ffb0006335560f635c0cb876b7a65606b618988",
          "blockNumber": "0x1c3e792",
          "transactionHash": "0xe1676709d261057c01bbd43e057276a4e2ca36c822f568d7fddf795008dc8db3",
          "transactionIndex": "0xa",
          "logIndex": "0x1f",
          "removed": false
        },
        {
          "address": "0x58cb08e00ec0d97ee1b9fb0dcee0bc87978ddc58",
          "topics": [
            "0xf1109ae3af61805fa998753209b2a90166bfc4b38ad8a6b5a268591ce18f99c0"
          ],
          "data": "0x000000000000000000000000da8bebf6f9cfec0c0e1be2ce3f689221692594ba6ccf56ff18093bc61462cd67c8aa86216fbad049e41d9bffa0856e5f34af54986621d2d930ef7ada6260d3e0a5679a8fe81fde41262314f2efbf9c4c828550b10000000000000000000000000000000000000000000000000000000000000001",
          "blockHash": "0x5f32638de025c92b8d6d35253ffb0006335560f635c0cb876b7a65606b618988",
          "blockNumber": "0x1c3e792",
          "transactionHash": "0xe1676709d261057c01bbd43e057276a4e2ca36c822f568d7fddf795008dc8db3",
          "transactionIndex": "0xa",
          "logIndex": "0x20",
          "removed": false
        },
        {
          "address": "0x58cb08e00ec0d97ee1b9fb0dcee0bc87978ddc58",
          "topics": [
            "0xbaa7ef9db66a2e95a218100288cf439de5fbe1e4ed665cd1a2f01278242c9fc4",
            "0x91a7b7cfbf25778df15c3d4ca6c52b74e38b13f988f4fa547af8debd2fe994c5",
            "0x78d9a981ccf98c74a1a6a34431c837167008beba4173e52a1a2eba63f5617eaf"
          ],
          "data": "0x000000000000000000000000000000000000000000000000000000000000002000000000000000000000000000000000000000000000000000000000000000040000000000000000000000008c1a617bdb47342f9c17ac8750e0b070c372c721000000000000000000000000000000000000000000000000000000000000006000000000000000000000000000000000000000000000000000000000000000620101da8bebf6f9cfec0c0e1be2ce3f689221692594ba6ccf56ff18093bc61462cd67c8aa86216fbad049e41d9bffa0856e5f34af54986621d2d930ef7ada6260d3e0a5679a8fe81fde41262314f2efbf9c4c828550b1010000000000000000000000000000000000000000000000000000000000000000000000000000000000",
          "blockHash": "0x5f32638de025c92b8d6d35253ffb0006335560f635c0cb876b7a65606b618988",
          "blockNumber": "0x1c3e792",
          "transactionHash": "0xe1676709d261057c01bbd43e057276a4e2ca36c822f568d7fddf795008dc8db3",
          "transactionIndex": "0xa",
          "logIndex": "0x21",
          "removed": false
        }
      ],
      "logsBloom": "0x00000000000400000000000000000000000000000000001000000000000000000000000000000000000000000000000000000000000000000000000000000020000000000020800020000008000000000000000000020000080000000000000000002000024000000000000000000800082000000000000000000010000000008000000000000000000000000000004000002000100020000000000000200000000000000000000000000000000000000000000000000000000000000000000000000002000000000000000000800000000000000000000200000000000020000000000000001000002000000000000000000010000000000000000000000200",
      "type": "0x2",
      "transactionHash": "0xe1676709d261057c01bbd43e057276a4e2ca36c822f568d7fddf795008dc8db3",
      "transactionIndex": "0xa",
      "blockHash": "0x5f32638de025c92b8d6d35253ffb0006335560f635c0cb876b7a65606b618988",
      "blockNumber": "0x1c3e792",
      "gasUsed": "0x1c4ef",
      "effectiveGasPrice": "0xf4286",
      "from": "0x8c1a617bdb47342f9c17ac8750e0b070c372c721",
      "to": "0x58cb08e00ec0d97ee1b9fb0dcee0bc87978ddc58",
      "contractAddress": null,
      "l1BaseFeeScalar": "0x44d",
      "l1BlobBaseFee": "0x1",
      "l1BlobBaseFeeScalar": "0xa118b",
      "l1Fee": "0x442a24",
      "l1GasPrice": "0x18db6d",
      "l1GasUsed": "0x9ba"
    }
  ],
  "libraries": [],
  "pending": [],
  "returns": {},
  "timestamp": 1755000324,
  "chain": 84532,
  "commit": "d8c3a8c"
}