{
  "transactions": [
    {
      "hash": "0x401bd8ea4d6c51d62c9562b1e50287985d69df8d9c01b1bb2271b974ad5d31ee",
      "transactionType": "CALL",
      "contractName": null,
      "contractAddress": "0x58cb08e00ec0d97ee1b9fb0dcee0bc87978ddc58",
      "function": "bridgeToken((address,bytes32,bytes32,uint64),(bytes32,bytes[],bytes)[])",
      "arguments": [
        "(0xEeeeeEeeeEeEeeEeEeEeeEEEeeeeEeeeeeeeEEeE, 0x27fc650cb2e575ff2305cf3a2e937ee037a28e94171489ab54925d89aa7b265f, 0x6ce0eb02e5c9ce90914c1457e6ebb812b96a9d5a4f2cb753c13c4e84eb0703d0, 1)",
        "[]"
      ],
      "transaction": {
        "from": "0x8c1a617bdb47342f9c17ac8750e0b070c372c721",
        "to": "0x58cb08e00ec0d97ee1b9fb0dcee0bc87978ddc58",
        "gas": "0x2ffdd",
        "value": "0x3b9aca00",
        "input": "0x6736eb17000000000000000000000000eeeeeeeeeeeeeeeeeeeeeeeeeeeeeeeeeeeeeeee27fc650cb2e575ff2305cf3a2e937ee037a28e94171489ab54925d89aa7b265f6ce0eb02e5c9ce90914c1457e6ebb812b96a9d5a4f2cb753c13c4e84eb0703d0000000000000000000000000000000000000000000000000000000000000000100000000000000000000000000000000000000000000000000000000000000a00000000000000000000000000000000000000000000000000000000000000000",
        "nonce": "0x4d2",
        "chainId": "0x14a34"
      },
      "additionalContracts": [],
      "isFixedGasLimit": false
    }
  ],
  "receipts": [
    {
      "status": "0x1",
      "cumulativeGasUsed": "0x54eb4",
      "logs": [
        {
          "address": "0x58cb08e00ec0d97ee1b9fb0dcee0bc87978ddc58",
          "topics": [
            "0xf1109ae3af61805fa998753209b2a90166bfc4b38ad8a6b5a268591ce18f99c0"
          ],
          "data": "0x000000000000000000000000eeeeeeeeeeeeeeeeeeeeeeeeeeeeeeeeeeeeeeee27fc650cb2e575ff2305cf3a2e937ee037a28e94171489ab54925d89aa7b265f6ce0eb02e5c9ce90914c1457e6ebb812b96a9d5a4f2cb753c13c4e84eb0703d0000000000000000000000000000000000000000000000000000000003b9aca00",
          "blockHash": "0xb688924636524a6d1798567a3f75e0d712c35b4a6d1eede9fa0ef08e1d403ae4",
          "blockNumber": "0x1c3e73a",
          "transactionHash": "0x401bd8ea4d6c51d62c9562b1e50287985d69df8d9c01b1bb2271b974ad5d31ee",
          "transactionIndex": "0x2",
          "logIndex": "0xa",
          "removed": false
        },
        {
          "address": "0x58cb08e00ec0d97ee1b9fb0dcee0bc87978ddc58",
          "topics": [
            "0xbaa7ef9db66a2e95a218100288cf439de5fbe1e4ed665cd1a2f01278242c9fc4",
            "0x6ed78ee2ecde3cbc05b6a54e205dde715690a93f0f91a867e53099179b011ec4",
            "0x6ed78ee2ecde3cbc05b6a54e205dde715690a93f0f91a867e53099179b011ec4"
          ],
          "data": "0x000000000000000000000000000000000000000000000000000000000000002000000000000000000000000000000000000000000000000000000000000000000000000000000000000000008c1a617bdb47342f9c17ac8750e0b070c372c7210000000000000000000000000000000000000000000000000000000000000060000000000000000000000000000000000000000000000000000000000000004e010227fc650cb2e575ff2305cf3a2e937ee037a28e94171489ab54925d89aa7b265f6ce0eb02e5c9ce90914c1457e6ebb812b96a9d5a4f2cb753c13c4e84eb0703d0010000000000000000000000000000000000000000000000000000000000",
          "blockHash": "0xb688924636524a6d1798567a3f75e0d712c35b4a6d1eede9fa0ef08e1d403ae4",
          "blockNumber": "0x1c3e73a",
          "transactionHash": "0x401bd8ea4d6c51d62c9562b1e50287985d69df8d9c01b1bb2271b974ad5d31ee",
          "transactionIndex": "0x2",
          "logIndex": "0xb",
          "removed": false
        }
      ],
      "logsBloom": "0x00000000000000000000080000000000000000000000000000000000000000000000000000000000000040000000000000000000000000000000000000000000000000000020000020000000000000000000000000020000080000000000000000002000000000000000000000000000000000000000000000000000000000000000000000000000000000000000004000000000000000000000000000000000000000000000000000000000000000000000000000000000000000000000000000000010000000000000000000000000000000000000000200000000000000000000000000000000002000000000000000000010000000000000000000000000",
      "type": "0x2",
      "transactionHash": "0x401bd8ea4d6c51d62c9562b1e50287985d69df8d9c01b1bb2271b974ad5d31ee",
      "transactionIndex": "0x2",
      "blockHash": "0xb688924636524a6d1798567a3f75e0d712c35b4a6d1eede9fa0ef08e1d403ae4",
      "blockNumber": "0x1c3e73a",
      "gasUsed": "0x20d09",
      "effectiveGasPrice": "0xf4283",
      "from": "0x8c1a617bdb47342f9c17ac8750e0b070c372c721",
      "to": "0x58cb08e00ec0d97ee1b9fb0dcee0bc87978ddc58",
      "contractAddress": null,
      "l1BaseFeeScalar": "0x44d",
      "l1BlobBaseFee": "0x1",
      "l1BlobBaseFeeScalar": "0xa118b",
      "l1Fee": "0x34c50e",
      "l1GasPrice": "0x1491cc",
      "l1GasUsed": "0x91a"
    }
  ],
  "libraries": [],
  "pending": [],
  "returns": {},
  "timestamp": 1755000149,
  "chain": 84532,
  "commit": "d8c3a8c"
}