{
  "transactions": [
    {
      "hash": "0xb64c033f9ca3287b9a2bb35caa7cd36c3e728209ae8380b56dfc921379394faf",
      "transactionType": "CALL",
      "contractName": null,
      "contractAddress": "0xb056775cb01dd846d8d3d4dbff34c17e5e5ae5bd",
      "function": "deploy(bytes32,string,string,uint8)",
      "arguments": [
        "0x6ccf56ff18093bc61462cd67c8aa86216fbad049e41d9bffa0856e5f34af5498",
        "WrappedSPL",
        "wSPL",
        "9"
      ],
      "transaction": {
        "from": "0x8c1a617bdb47342f9c17ac8750e0b070c372c721",
        "to": "0xb056775cb01dd846d8d3d4dbff34c17e5e5ae5bd",
        "gas": "0x5301a",
        "value": "0x0",
        "input": "0x23c3601f6ccf56ff18093bc61462cd67c8aa86216fbad049e41d9bffa0856e5f34af5498000000000000000000000000000000000000000000000000000000000000008000000000000000000000000000000000000000000000000000000000000000c00000000000000000000000000000000000000000000000000000000000000009000000000000000000000000000000000000000000000000000000000000000a5772617070656453504c0000000000000000000000000000000000000000000000000000000000000000000000000000000000000000000000000000000000047753504c00000000000000000000000000000000000000000000000000000000",
        "nonce": "0x52a",
        "chainId": "0x14a34"
      },
      "additionalContracts": [
        {
          "transactionType": "CREATE2",
          "address": "0x6b4097d0f0902def463b1f67e7b9bf21f2be7a78",
          "initCode": "0x60523d8160223d39737f8537cb15fcc0e442f410d565a8cfdec42caaa760195155f3363d3d373d3d363d602036600436635c60da1b60e01b36527fa3f0ad74e5423aebfd80d3ef4346578335a9a72aeaee59ff6cb3582b35133d50545afa5036515af43d6000803e604d573d6000fd5b3d6000f3"
        }
      ],
      "isFixedGasLimit": false
    }
  ],
  "receipts": [
    {
      "status": "0x1",
      "cumulativeGasUsed": "0x496a2",
      "logs": [
        {
          "address": "0x6b4097d0f0902def463b1f67e7b9bf21f2be7a78",
          "topics": [
            "0xc7f505b2f371ae2175ee4913f4499e1f2633a7b5936321eed1cdaeb6115181d2"
          ],
          "data": "0x0000000000000000000000000000000000000000000000000000000000000001",
          "blockHash": "0x66e80f235346cf8cc9c321474a851f6e070f0501d332dde3cd4cc8d5a87d5d37",
          "blockNumber": "0x1d340b4",
          "transactionHash": "0xb64c033f9ca3287b9a2bb35caa7cd36c3e728209ae8380b56dfc921379394faf",
          "transactionIndex": "0x1",
          "logIndex": "0x0",
          "removed": false
        },
        {
          "address": "0xb056775cb01dd846d8d3d4dbff34c17e5e5ae5bd",
          "topics": [
            "0x0b84965add45c4d10c5aacc22714edc5f88def8df83d2c1f9d18b45ef2d28783",
            "0x0000000000000000000000006b4097d0f0902def463b1f67e7b9bf21f2be7a78",
            "0x6ccf56ff18093bc61462cd67c8aa86216fbad049e41d9bffa0856e5f34af5498"
          ],
          "data": "0x0000000000000000000000008c1a617bdb47342f9c17ac8750e0b070c372c721",
          "blockHash": "0x66e80f235346cf8cc9c321474a851f6e070f0501d332dde3cd4cc8d5a87d5d37",
          "blockNumber": "0x1d340b4",
          "transactionHash": "0xb64c033f9ca3287b9a2bb35caa7cd36c3e728209ae8380b56dfc921379394faf",
          "transactionIndex": "0x1",
          "logIndex": "0x1",
          "removed": false
        }
      ],
      "logsBloom": "0x000000000000000000000000000000000000000008000000000000000000000000000000000000000000000000000000000000001000000000000100000000000010000000000000000000000020000000000000000000000000000000000000000000000000000000000000000000c0000000008000000010000000000000000000000000000000100800000000000000080000020080000000000000000000001000000000000000000000000000000000000000000000000000000000000001000000000000000000000000000000000000000004000000000000000000000000000000000000000000000000000000000000000000000000000000000040",
      "type": "0x2",
      "transactionHash": "0xb64c033f9ca3287b9a2bb35caa7cd36c3e728209ae8380b56dfc921379394faf",
      "transactionIndex": "0x1",
      "blockHash": "0x66e80f235346cf8cc9c321474a851f6e070f0501d332dde3cd4cc8d5a87d5d37",
      "blockNumber": "0x1d340b4",
      "gasUsed": "0x3c186",
      "effectiveGasPrice": "0xf427e",
      "from": "0x8c1a617bdb47342f9c17ac8750e0b070c372c721",
      "to": "0xb056775cb01dd846d8d3d4dbff34c17e5e5ae5bd",
      "contractAddress": null,
      "l1BaseFeeScalar": "0x44d",
      "l1BlobBaseFee": "0x1279c203",
      "l1BlobBaseFeeScalar": "0xa118b",
      "l1Fee": "0x623b4c4f6",
      "l1GasPrice": "0x224aaf",
      "l1GasUsed": "0x80e"
    }
  ],
  "libraries": [],
  "pending": [],
  "returns": {},
  "timestamp": 1757012041653,
  "chain": 84532,
  "commit": "b757075"
}